{
  "contractName": "DappToken",
  "abi": [
    {
      "inputs": [],
      "payable": false,
      "stateMutability": "nonpayable",
      "type": "constructor"
    },
    {
      "anonymous": false,
      "inputs": [
        {
          "indexed": true,
          "internalType": "address",
          "name": "_owner",
          "type": "address"
        },
        {
          "indexed": true,
          "internalType": "address",
          "name": "_spender",
          "type": "address"
        },
        {
          "indexed": false,
          "internalType": "uint256",
          "name": "_numTokens",
          "type": "uint256"
        }
      ],
      "name": "Approval",
      "type": "event"
    },
    {
      "anonymous": false,
      "inputs": [
        {
          "indexed": true,
          "internalType": "address",
          "name": "_from",
          "type": "address"
        },
        {
          "indexed": true,
          "internalType": "address",
          "name": "_receiver",
          "type": "address"
        },
        {
          "indexed": false,
          "internalType": "uint256",
          "name": "_numTokens",
          "type": "uint256"
        }
      ],
      "name": "Transfer",
      "type": "event"
    },
    {
      "constant": true,
      "inputs": [
        {
          "internalType": "address",
          "name": "",
          "type": "address"
        },
        {
          "internalType": "address",
          "name": "",
          "type": "address"
        }
      ],
      "name": "allowance",
      "outputs": [
        {
          "internalType": "uint256",
          "name": "",
          "type": "uint256"
        }
      ],
      "payable": false,
      "stateMutability": "view",
      "type": "function"
    },
    {
      "constant": true,
      "inputs": [
        {
          "internalType": "address",
          "name": "",
          "type": "address"
        }
      ],
      "name": "balanceOf",
      "outputs": [
        {
          "internalType": "uint256",
          "name": "",
          "type": "uint256"
        }
      ],
      "payable": false,
      "stateMutability": "view",
      "type": "function"
    },
    {
      "constant": true,
      "inputs": [],
      "name": "decimals",
      "outputs": [
        {
          "internalType": "uint8",
          "name": "",
          "type": "uint8"
        }
      ],
      "payable": false,
      "stateMutability": "view",
      "type": "function"
    },
    {
      "constant": true,
      "inputs": [],
      "name": "name",
      "outputs": [
        {
          "internalType": "string",
          "name": "",
          "type": "string"
        }
      ],
      "payable": false,
      "stateMutability": "view",
      "type": "function"
    },
    {
      "constant": true,
      "inputs": [],
      "name": "symbol",
      "outputs": [
        {
          "internalType": "string",
          "name": "",
          "type": "string"
        }
      ],
      "payable": false,
      "stateMutability": "view",
      "type": "function"
    },
    {
      "constant": true,
      "inputs": [],
      "name": "totalSupply",
      "outputs": [
        {
          "internalType": "uint256",
          "name": "",
          "type": "uint256"
        }
      ],
      "payable": false,
      "stateMutability": "view",
      "type": "function"
    },
    {
      "constant": false,
      "inputs": [
        {
          "internalType": "address",
          "name": "_receiver",
          "type": "address"
        },
        {
          "internalType": "uint256",
          "name": "_numTokens",
          "type": "uint256"
        }
      ],
      "name": "transfer",
      "outputs": [
        {
          "internalType": "bool",
          "name": "success",
          "type": "bool"
        }
      ],
      "payable": false,
      "stateMutability": "nonpayable",
      "type": "function"
    },
    {
      "constant": false,
      "inputs": [
        {
          "internalType": "address",
          "name": "_spender",
          "type": "address"
        },
        {
          "internalType": "uint256",
          "name": "_numTokens",
          "type": "uint256"
        }
      ],
      "name": "approve",
      "outputs": [
        {
          "internalType": "bool",
          "name": "success",
          "type": "bool"
        }
      ],
      "payable": false,
      "stateMutability": "nonpayable",
      "type": "function"
    },
    {
      "constant": false,
      "inputs": [
        {
          "internalType": "address",
          "name": "_from",
          "type": "address"
        },
        {
          "internalType": "address",
          "name": "_to",
          "type": "address"
        },
        {
          "internalType": "uint256",
          "name": "_value",
          "type": "uint256"
        }
      ],
      "name": "transferFrom",
      "outputs": [
        {
          "internalType": "bool",
          "name": "success",
          "type": "bool"
        }
      ],
      "payable": false,
      "stateMutability": "nonpayable",
      "type": "function"
    },
    {
      "constant": false,
      "inputs": [
        {
          "internalType": "string",
          "name": "_name",
          "type": "string"
        }
      ],
      "name": "setName",
      "outputs": [],
      "payable": false,
      "stateMutability": "nonpayable",
      "type": "function"
    },
    {
      "constant": true,
      "inputs": [],
      "name": "getAccName",
      "outputs": [
        {
          "internalType": "string",
          "name": "",
          "type": "string"
        }
      ],
      "payable": false,
      "stateMutability": "view",
      "type": "function"
    },
    {
      "constant": false,
      "inputs": [
        {
          "internalType": "address",
          "name": "_newAddress",
          "type": "address"
        }
      ],
      "name": "setAccount",
      "outputs": [],
      "payable": false,
      "stateMutability": "nonpayable",
      "type": "function"
    },
    {
      "constant": true,
      "inputs": [],
      "name": "getAcc",
      "outputs": [
        {
          "internalType": "uint256",
          "name": "",
          "type": "uint256"
        }
      ],
      "payable": false,
      "stateMutability": "view",
      "type": "function"
    }
  ],
  "bytecode": "0x60c0604052600a6080819052692220b838102a37b5b2b760b11b60a090815261002b91600091906100cf565b50604080518082019091526004808252630444150560e41b6020909201918252610057916001916100cf565b5069d3c21bcecceda10000006002556003805460ff1916601217905560408051808201909152600a808252692a32b9ba103a37b5b2b760b11b60209092019182526100a4916004916100cf565b5060006005553480156100b657600080fd5b506002543360009081526006602052604090205561016a565b828054600181600116156101000203166002900490600052602060002090601f016020900481019282601f1061011057805160ff191683800117855561013d565b8280016001018555821561013d579182015b8281111561013d578251825591602001919060010190610122565b5061014992915061014d565b5090565b61016791905b808211156101495760008155600101610153565b90565b6107f8806101796000396000f3fe608060405234801561001057600080fd5b50600436106100cf5760003560e01c80634a2ee8d01161008c578063a9059cbb11610066578063a9059cbb1461025d578063c47f002714610289578063cedd68d01461032f578063dd62ed3e14610337576100cf565b80634a2ee8d01461022757806370a082311461022f57806395d89b4114610255576100cf565b806306fdde03146100d4578063095ea7b31461015157806318160ddd1461019157806323b872dd146101ab57806329f6d57c146101e1578063313ce56714610209575b600080fd5b6100dc610365565b6040805160208082528351818301528351919283929083019185019080838360005b838110156101165781810151838201526020016100fe565b50505050905090810190601f1680156101435780820380516001836020036101000a031916815260200191505b509250505060405180910390f35b61017d6004803603604081101561016757600080fd5b506001600160a01b0381351690602001356103f3565b604080519115158252519081900360200190f35b610199610459565b60408051918252519081900360200190f35b61017d600480360360608110156101c157600080fd5b506001600160a01b0381358116916020810135909116906040013561045f565b610207600480360360208110156101f757600080fd5b50356001600160a01b031661053e565b005b61021161055b565b6040805160ff9092168252519081900360200190f35b610199610564565b6101996004803603602081101561024557600080fd5b50356001600160a01b031661056b565b6100dc61057d565b61017d6004803603604081101561027357600080fd5b506001600160a01b0381351690602001356105d7565b6102076004803603602081101561029f57600080fd5b8101906020810181356401000000008111156102ba57600080fd5b8201836020820111156102cc57600080fd5b803590602001918460018302840111640100000000831117156102ee57600080fd5b91908080601f016020809104026020016040519081016040528093929190818152602001838380828437600092019190915250929550610661945050505050565b6100dc610678565b6101996004803603604081101561034d57600080fd5b506001600160a01b038135811691602001351661070e565b6000805460408051602060026001851615610100026000190190941693909304601f810184900484028201840190925281815292918301828280156103eb5780601f106103c0576101008083540402835291602001916103eb565b820191906000526020600020905b8154815290600101906020018083116103ce57829003601f168201915b505050505081565b3360008181526007602090815260408083206001600160a01b038716808552908352818420869055815186815291519394909390927f8c5be1e5ebec7d5bd14f71427d1e84f3dd0314c0f7b2291e5b200ac8c7c3b925928290030190a350600192915050565b60025481565b6001600160a01b03831660009081526006602052604081205482111561048457600080fd5b6001600160a01b03841660009081526007602090815260408083203384529091529020548211156104b457600080fd5b6001600160a01b0380851660008181526006602090815260408083208054889003905593871680835284832080548801905583835260078252848320338452825291849020805487900390558351868152935191937fddf252ad1be2c89b69c2b068fc378daa952ba7f163c4a11628f55a4df523b3ef929081900390910190a35060019392505050565b6001600160a01b0316600090815260066020526040902054600555565b60035460ff1681565b6005545b90565b60066020526000908152604090205481565b60018054604080516020600284861615610100026000190190941693909304601f810184900484028201840190925281815292918301828280156103eb5780601f106103c0576101008083540402835291602001916103eb565b336000908152600660205260408120548211156105f357600080fd5b336000818152600660209081526040808320805487900390556001600160a01b03871680845292819020805487019055805186815290519293927fddf252ad1be2c89b69c2b068fc378daa952ba7f163c4a11628f55a4df523b3ef929181900390910190a350600192915050565b805161067490600490602084019061072b565b5050565b60048054604080516020601f60026000196101006001881615020190951694909404938401819004810282018101909252828152606093909290918301828280156107045780601f106106d957610100808354040283529160200191610704565b820191906000526020600020905b8154815290600101906020018083116106e757829003601f168201915b5050505050905090565b600760209081526000928352604080842090915290825290205481565b828054600181600116156101000203166002900490600052602060002090601f016020900481019282601f1061076c57805160ff1916838001178555610799565b82800160010185558215610799579182015b8281111561079957825182559160200191906001019061077e565b506107a59291506107a9565b5090565b61056891905b808211156107a557600081556001016107af56fea265627a7a723158205d12917033ea18310657b2a2af6ad706c864beeda6fc817469b800d12c53c34864736f6c63430005100032",
  "source": "pragma solidity ^0.5.0;\n\ncontract DappToken {\n  // attributes of the token\n  string  public name = \"DApp Token\";\n  string  public symbol = \"DAPP\";\n  // total supply of tokens allocated\n  uint256 public totalSupply = 1000000000000000000000000; // 1 million tokens\n  uint8   public decimals = 18;\n  string accName = \"Test token\";\n  uint256 accToken = 0;\n\n  // create our event that will will be emitted when there is a transfer()\n  event Transfer(\n    address indexed _from,\n    address indexed _receiver,\n    uint256 _numTokens\n  );\n\n  event Approval(\n    address indexed _owner,\n    address indexed _spender,\n    uint256 _numTokens\n  );\n\n   // current token of an account identified by the owners address\n  mapping(address => uint256) public balanceOf;\n\n  // token allowed to be transfered from an address to owners address.\n  mapping(address => mapping(address => uint256)) public allowance;\n\n  // runs right after contract is deployed\n  // sets the totalTokens to the accounts of the owner.\n  constructor() public {\n    balanceOf[msg.sender] = totalSupply;\n  }\n\n  function transfer(address _receiver, uint256 _numTokens) public returns (bool success) {\n    require( _numTokens <= balanceOf[msg.sender]);\n    balanceOf[msg.sender] = balanceOf[msg.sender] - _numTokens;\n    balanceOf[_receiver] = balanceOf[_receiver] + _numTokens;\n    emit Transfer(msg.sender, _receiver, _numTokens);\n    return true;\n  }\n\n  function approve(address _spender, uint256 _numTokens) public returns (bool success) {\n    // account owner approves spender a number of token to be spent or transfered.\n    allowance[msg.sender][_spender] = _numTokens;\n    emit Approval(msg.sender, _spender, _numTokens);\n    return true;\n  }\n\n  function transferFrom(address _from, address _to, uint256 _value) public returns (bool success) {\n    require(_value <= balanceOf[_from]);\n    require(_value <= allowance[_from][msg.sender]);\n    balanceOf[_from] -= _value;\n    balanceOf[_to] += _value;\n    allowance[_from][msg.sender] -= _value;\n    emit Transfer(_from, _to, _value);\n    return true;\n  }\n\n  function setName(string memory _name) public {\n    accName = _name;\n  }\n\n  function getAccName() public view returns (string memory) {\n    return accName;\n  }\n\n  function setAccount(address _newAddress) public {\n    accToken = balanceOf[_newAddress];\n  }\n\n  function getAcc() public view returns (uint256) {\n    return accToken;\n  }\n}",
  "sourcePath": "/Users/apple/Workspace/blockchain/tokenSales/contracts/DappToken.sol",
  "compiler": {
    "name": "solc",
    "version": "0.5.16+commit.9c3226ce.Emscripten.clang"
  },
  "schemaVersion": "3.2.3",
  "updatedAt": "2021-04-10T11:17:05.586Z",
  "networkType": "ethereum",
  "devdoc": {
    "methods": {}
  },
  "userdoc": {
    "methods": {}
  }
}